:1000000009C021C020C01FC01EC01DC01CC01BC015
:100010001AC019C011241FBECFE9CDBF10E0A0E661
:10002000B0E0E4EBF2E002C005900D92A636B10715
:10003000D9F710E0A6E6B0E001C01D92AE36B107D8
:10004000E1F7D3D035C1DCCF809168008F5F80931A
:1000500068008F7761F480916A0090916700209129
:10006000690020936A009093690080936700089567
:1000700090916D00992321F420916900280F11C0FF
:10008000913021F420916A00281B13C0923021F492
:1000900020916700280F15C0933031F4209169003A
:1000A000281B209369000FC0943031F420916A001E
:1000B000280F20936A0007C0953029F4209167002B
:1000C000281B2093670030916A003F3F71F0209118
:1000D00069002F3F51F0809167008F3F31F033234B
:1000E00021F0222311F0882331F4892F8F5F66E0FD
:1000F000ACD090936D000895809168008F5F8093DD
:1001000068008F7719F48FEF90E0B2DF089581E0F7
:1001100090E0AEDF0895809366009FEF90936A00B1
:1001200010926900109267001092680010926D00A2
:10013000E82FF0E0EE0FFF1FE05AFF4F8081918122
:1001400090936C0080936B0008958091660090E01E
:10015000019663E070E085D0DEDF08951F93C49AB6
:1001600088B3876088BB1AE006C085E099EF0197E5
:10017000F1F700C000001150C0F7C49885B7877E22
:10018000806185BF88E085BB8BB780628BBF8AB7F3
:1001900080628ABF789485B7806285BF889585B76D
:1001A0008F7D85BFF89481E0B6DFB39B02C01F5FEF
:1001B00001C010E089E698E10197F1F700C0000066
:1001C0001B3F98F71F9108951F920F920FB60F9241
:1001D0001124C49A0F900FBE0F901F901895E091B4
:1001E0006B00F0916C00099508950F931F93BA9AD4
:1001F000B99AB89ABC9AC39ABB9881E08CDFEFDFBA
:1002000000E010E080916A00181710F4C29801C055
:10021000C29A80916900181710F4C19801C0C19A60
:1002200080916700181710F4C09801C0C09A11237C
:1002300051F4B39905C0002321F487DF01E001C028
:1002400001110F5FCCDF1F5FDDCF991B79E004C088
:10025000991F961708F0961B881F7A95C9F7809505
:10026000089597FB092E07260AD077FD04D00CD0FD
:1002700006D000201AF4709561957F4F0895F6F727
:10028000909581959F4F0895AA1BBB1B51E107C014
:10029000AA1FBB1FA617B70710F0A61BB70B881F16
:1002A000991F5A95A9F780959095BC01CD010895A5
:0402B000F894FFCFF0
:0602B400870024007C001D
:00000001FF
